S0200000657A73702D7370692D626F6F746C6F616465722D362E332E302E7333371F
S1130800007C00202D090000290900007D0900005A
S1130810290900002909000029090000290900000C
S113082029090000290900001037000029090000E7
S113083029090000290900002909000029090000EC
S113084010B5054C237833B9044B13B10448AFF306
S113085000800123237010BD2C0100200000000043
S1130860CC380000084B10B51BB108480849AFF359
S113087000800848036803B910BD074B002BFBD068
S1130880BDE81040184700BF00000000CC3800004D
S11308903001002028010020000000000D4AD2F899
S11308A0943003F00703032B0AD0042B03D0022B4C
S11308B003D1094B02E0094B00E0094B186801E041
S11308C04FF40040D2F80031C3F304230133B0FBEA
S11308D0F3F0704700400E400401002000010020A6
S11308E00C0100200D4AD2F8883043F47003C2F89A
S11308F088300B4B5A6D42F400525A651A6C22F040
S113090003021A64074A136823F00103136052F8C0
S1130910143C23F0805342F8143C704700ED00E08F
S113092000300E4074300E40FEE7000008B5FFF7BB
S1130930D9FF00F091F80A4A0A4B0B498B4204D2C2
S113094052F8041F43F8041BF7E7084B084A934284
S113095003D2002243F8042BF8E700F015F800BF97
S1130960CC380000000100202C0100202C010020C4
S113097000050020002070470020704708B54FF4A0
S1130980017002F02FF900002C4B1A682C4B13B5A0
S11309901A602C4BDC6C01A8240E00F069FF8E2C2D
S11309A015D82949294AD1F8B00040F00403C1F808
S11309B0B0304FF05013136013631366C2F89030D5
S11309C0C2F8C030C2F8F030C1F8B00001E08F2C9A
S11309D006D11D4AD36A23F07F0343F02003D36278
S11309E09DF80530012B01BF194A136843F0040335
S11309F01360184B00221A60FFF7BCFF02F0ECF8FA
S1130A0000F0D0FF00F0FAFF10B14FF401700BE0DA
S1130A1001F030F8044601F04FFA1CB140F20373C0
S1130A209C4203D140F2012002F0DCF8A4F20574E8
S1130A30012CEAD840F20320F6E700BF0C010020A5
S1130A4008010020B081E00F00400E4000A00040EB
S1130A5064310E40B40AC64308B51B4B5B685B05A2
S1130A6004D401F03BFA68B901230CE002F0DAF88F
S1130A70A0F2022080B20728F3D80123834013F0A8
S1130A80C90FEED0002344F204021268013205D1EA
S1130A904FF40270BDE8084002F097B893B14FF4E8
S1130AA0804002F005F80028F2D0084A4FF4804351
S1130AB093601846016881F3088881F309884068C7
S1130AC08746FEE708BD00BF00500E4000ED00E081
S1130AD00020704749BA89B24840C0F30311484026
S1130AE080EA003080B2C3B280EA4310704738B560
S1130AF004464518AC4206D0114614F8010BFFF722
S1130B00E9FF0246F6E7104638BD000010B50B4C6D
S1130B10D4F8B03043F02003C4F8B030084B0124BB
S1130B201C6001449A605C60884204D0044A10F856
S1130B30014B9461F8E7D86910BD00BF00400E4036
S1130B4000C00140F8B504461D4616460F4601F0A4
S1130B5071FA079A0699204601F072FA002363623B
S1130B6084F838703268C4F839207268C4F83D20BB
S1130B70C5F30743B26884F84530C5F30723C4F8C6
S1130B80412084F8463084F84750F8BD30B585B02C
S1130B9000F12805019102921946009500F1240202
S1130BA000F1380301F06AFA05B030BDF0B50F4624
S1130BB0A3B01646044638B331B32AB3144801210E
S1130BC000F0DAFC4022002102A802F08CFD01F0C2
S1130BD07FFE014602A800F013FB01F07DFE12AD7A
S1130BE001460AA800F00CFB2846394600F008FB31
S1130BF01AA8314600F004FB00952146202202ABDE
S1130C00044800F00FFB01E040F2016023B0F0BDA6
S1130C1000150A0000000F4010B5044601F0B6FBB1
S1130C2020460021BDE8104001F0E2BB01F076BC93
S1130C30014601F075BC1C2350F8042F0AB9043B8B
S1130C40FAD1002BCCBF00200120704730B58A6850
S1130C500D684C68CB6805600460026003600D6930
S1130C604C698A69CB69056004600260036030BD29
S1130C7030B50568046802680368CB600D604C6099
S1130C808A600568046802680368CB610D614C6181
S1130C908A6130BD2DE9F04104461D460E4690465A
S1130CA000212022184602F01EFD01232B6000F0D3
S1130CB0A1FC4146074604F58070FFF7C7FF3146A3
S1130CC004F5827004F58476FFF7C0FF30462946A8
S1130CD0FFF7BCFF384600F091FC0D4B23656369B8
S1130CE0DB0108D40B4B23650B4B63650B4BA365EE
S1130CF00B4BE365F3E700F07DFC294604463046E0
S1130D00FFF7B6FF2046BDE8F04100F077BC00BF16
S1130D1039398401D02484FC1C82FED88B1C81A028
S1130D20393801002DE9F04F8DB004460F461546C1
S1130D30984600F05FFC04F5827607F1400A81468C
S1130D4051463046FFF782FF04F58673184629465C
S1130D500393FFF77BFF04F58872104605F1200129
S1130D600292FFF773FF484600F048FC42492165B0
S1130D704249616501254249A165E56500F03AFCF7
S1130D8004F5847907F1200B019039463046FFF7CA
S1130D905DFF48465946FFF759FF029A51461046EF
S1130DA0FFF754FFDDF804C0604600F027FC354A25
S1130DB02265354A6265A56500F01CFC04F5807A5D
S1130DC0019008F140015046FFF752FF04A948463C
S1130DD0FFF74EFF019A104600F010FC00F00AFCE9
S1130DE0039B019039461846FFF730FF019A1046DD
S1130DF000F004FC254B2365254B63656FF42672D4
S1130E00A3F5FE231344A365E56500F0F3FB5946FF
S1130E1007463046FFF71AFF384600F0EFFB1D4B3C
S1130E2023651D4B6365A56500F0E4FB4146074659
S1130E304846FFF71DFF384600F0E0FB00F0DAFB00
S1130E4004A907463046FFF701FF384600F0D6FBF9
S1130E50124B2365124B6365A56500F0CBFB08F1CB
S1130E60200104465046FFF703FF204600F0C6FB6E
S1130E700DB0BDE8F08F00BF8AD11C81D91C83D18D
S1130E801C81E11CD01482CB1481E11C8CE11C81F7
S1130E901C84D91CE014D8141482E11C84D3148259
S1130EA0D11CE0142DE9F04FA5B004461D46009274
S1130EB08B462022002104A802F015FC05F120072E
S1130EC00123002120222846049305F1400802F062
S1130ED00AFC00212022384602F005FC00212022D1
S1130EE0404602F000FC2046052100F08AFB002366
S1130EF02360FF262363636306F01F0101238B40F5
S1130F007211009951F82220134201D1013EF3D10C
S1130F1000F070FB04F58272394681461046029255
S1130F20FFF794FE484600F069FB7E4B23657E4B39
S1130F3063657E4BA36500F05DFB04F5807A14A91C
S1130F4081465046FFF794FE484600F057FB00F0F8
S1130F5051FB294681465046FFF778FE484600F08B
S1130F604DFB734B2365734B63654FF48673A36525
S1130F7000F040FB04F5867901900CA94846FFF780
S1130F8077FE1CA95046FFF773FE019B184600F03C
S1130F9035FB00F02FFB029A019041461046039264
S1130FA0FFF754FE019B184600F028FB624B2365B3
S1130FB00123636500F01EFB04F584732946019048
S1130FC018460293FFF742FEDDF804C0604600F0C5
S1130FD015FB5A49216501F1D94101F5DE1101F5ED
S1130FE095616165A1F58611A1F2BA410123A1655C
S1130FF0E36500F0FFFA029B01901CA91846FFF775
S113100025FE0CA94846FFF721FEDDF804C0604622
S113101000F0F4FA4A4921654A4961654A49A165E3
S113102000F0E8FA2946019004F58870FFF720FEE5
S1131030DDF804C0604600F0E1FA00F0DBFA039A40
S1131040019039461046FFF701FE029B41461846BF
S1131050FFF7FCFD14A94846FFF7F8FDDDF804C0CE
S1131060604600F0CBFA394B2365394B636500F0D9
S1131070C1FA414601905046FFF7FAFD3946484609
S1131080FFF7F6FD019B184600F0B8FA012106F0BF
S11310901F0301FA03F37211009951F8222013423D
S11310A038D02B687BB92846FFF7C5FD58B12B6AA9
S11310B04BB93846FFF7BFFD28B12B6C1BB940462E
S11310C0FFF7B9FD30B9204629465A462B46FFF7AB
S11310D029FE1FE05B462A460BF1200153F8040B5E
S11310E042F8040B8B42F9D13A4603F1200153F83C
S11310F0040B42F8040B8B42F9D10DF1100E424659
S1131100734603CB51600CA98B4210609E4602F1DA
S11311100802F5D116F1FF36BFF4FAAE25B0BDE8EA
S1131120F08F00BF8AD11C81821CC00C0C0C010002
S1131130C00C0C83D91C83D88AD11C83DA0C81148B
S11311408CE11CD01484E31482D11C01D81483D103
S11311501CC00C012DE9F041044690B00F46244E0A
S11311600521904600F04DFA002323602363636356
S11311700FCE08AD0FC596E80F0085E80F0008AA4A
S11311806B4607F140012046FFF784FD00F032FA78
S113119004F586750646694604F58270FFF756FD28
S11311A028463946FFF752FD07F1200104F58870FF
S11311B0FFF74CFD304600F021FA0E4B23650E4B31
S11311C063650E4BA3650123E36500F013FA08F190
S11311D02001064604F58070FFF74AFD2846414683
S11311E0FFF746FD304600F009FA10B0BDE8F08183
S11311F0503700008AD11C81D91C83D11C81E11C89
S113120038B5202204460D46002102F06CFA631E14
S113121005F120011F3411F8012D03F8012FA34219
S1131220F9D138BD2DE9F04FBDB0044600929A467D
S1131230469E0F46002900F00381002B00F0008138
S1131240002E00F0FD80002A40F3FA80002505609E
S1131250056345634368DFF80C8243F01003436081
S11312600C2100F0CEF9636823F4406343F4006377
S11312706360636823F4407343F400736360B8E805
S11312800F000DF1B00EAEE80F0098E80F008EE8E5
S11312900F0000F0AFF904F58479834631464846DF
S11312A004F58678FFF7D2FC2CA94046FFF7CEFC64
S11312B0584600F0A3F9654A226501236365616914
S11312C0C90102D440F20260BCE00393029200F030
S11312D091F906F1200B019059464846FFF7B6FCF8
S11312E040462CA9FFF7B2FC019800F087F9039B54
S11312F0029A226563656369DB01E3D5294634A854
S1131300202202F0F0F9009D202DA8BF2025013DE8
S1131310013F25F003033CAA4033134405F00301C5
S113132017F8012FC90002FA01F153F8602C15F1E6
S1131330FF3542EA010243F8602CEAD200F05AF980
S113134034A905464846FFF781FC284600F056F9C3
S11313503F4B236500F04EF904F58075074634A928
S11313602846FFF785FC384600F048F92CAA04AB60
S113137059462046FFF78EFC00F03CF904F58877C7
S1131380834604A904F58270FFF760FC384634A94B
S1131390FFF75CFC31464046FFF758FC584600F026
S11313A02DF92C4B236503F1FA43A3F50063636520
S11313B000F020F934A983463846FFF759FC284643
S11313C004A9FFF755FC584600F018F920462249B5
S11313D034AA0CABFFF766FD24AB2046514604AAA1
S11313E0FFF760FD0CA90A462046FFF7B3FE24A9C7
S11313F00B4620460CAAFFF795FC24A90A46204672
S1131400FFF7A8FE00F0F6F80C210546204600F090
S1131410F8F8484624A9FFF719FC40463146FFF77F
S113142015FC284600F0EAF80C4B23650C4B636569
S1131430636913F0807F40F2046018BF002001E06C
S113144040F201603DB0BDE8F08F00BF3035DA10E6
S113145030D00C0130E11C84903700003035DA14B0
S1131460393801007037000082B000EB40000021E1
S1131470CDE90001DDE9002312F1FF3043F1FF3132
S11314801343CDE90001F5D102B070471FB5124BEB
S11314901A6842F480121A60D3F8C02042F00102A4
S11314A0C3F8C020FFF7FAF94FF47A23B0FBF3F046
S11314B00A4B0D2218600021684602F014F901233A
S11314C08DF8003006480A2369468DF8023000F092
S11314D0E9F905B05DF804FB00400E404C01002022
S11314E0008001400C4A0D4B10B5546A1B68A4B22D
S11314F010FB03400A4B80B21880A042094B2CBF5A
S1131500002401241C70134611B15A6A8242FCD192
S113151001225A619A6110BD008001404C010020F3
S113152050010020480100200A4B1A780A4B22B1CE
S1131530D86810F0010003D17047DA68D20707D4E5
S1131540064A5B6A1088834234BF0020012070473A
S11315500120704748010020008001405001002014
S1131560044BD3F84421D20703D4D3F840211042CA
S1131570FBD1704700400E40C0F30322013A70B51E
S113158003460E46092A26D8DFE802F01808252566
S1131590050B0E25111500200F4C11E000200F4CF7
S11315A00EE001200E4C0BE010200E4C08E04FF42E
S11315B080300D4C04E000200C4C01E00C4C002069
S11315C0C3F3043508B1FFF7CBFF04F1047405EB52
S11315D0C404A400266070BDB0400E40C0400E405C
S11315E0E0400E40E8400E40F0400E4050410E40B6
S11315F000400E40EFF3108072B6704700B962B637
S113160070470E2910B5426810D822F01F0301223A
S11316108A4047F2E004144024B940F61F74144091
S113162024B101E043F010030B43436010BD0000FC
S1131630F0B542B1012430258C4045430BB1184E1E
S113164000E0184E74513024444304F180440729C7
S113165004F520440CD867684FEA810E0F2505FA7B
S11316600EF527EA050602FA0EF5354365600CE02F
S113167001F18045083DA768AD000F26AE4027EA7A
S1131680060602FA05F53543A56042B90122302465
S11316908A4044430BB1024B00E0024B1A51F0BDA7
S11316A00CA000460CA000440E4A0F4BD969C90790
S11316B002D58AB1013AF8E772B101221861DA6001
S11316C0DB6913F006000AD05A0707D413F0020F9F
S11316D00CBF0020FE2002E0FD2000E0FF2040B20D
S11316E0704700BF8096980000000E4030B509B9DD
S11316F0002037E092B91C4B50F822409C6108242A
S1131700DC601A4B0132184CE469E50702D543B397
S1131710013BF8E72BB38A42EDD1E9E7EFF31085FB
S113172072B60022104BDC69240706D4DC6904F08D
S11317301904102C08BFDC60F4E750F822409C61C7
S1131740013210248A42DC60ECD105B962B6074B41
S1131750054AD269D20702D51BB1013BF8E7002B39
S1131760C6D1FD2040B230BD00000E4080969800E6
S11317702DE9F0470E461F491F468B6843F00103CD
S113178081468B604FEA9208B2460025454519D23E
S113179009EB85042046FFF787FF38BBC4F30A042E
S11317A0C4F50064A408C5EB08039C4228BF1C468A
S11317B0504621463A46FFF799FF20B925440AEBE3
S11317C0840AE3E70020D9F8002033689A4208D05D
S11317D04846FFF769FF20B9304601213A46FFF732
S11317E085FF044A936823F00103936040B2BDE887
S11317F0F08700BF00000E40194B9A6842F00102C6
S11318009A6001221861DA60DA69510705D59A688D
S113181022F001029A60FF201FE0DA69920705D5E1
S11318209A6822F001029A60FE2016E00222DA6031
S11318300C4A0B4BD86910F00100194602D012B1C2
S1131840013AF6E72AB98B6823F001038B60FD2087
S113185003E09A6822F001029A6040B2704700BF28
S113186000000E40809698000023FFF781BF00001F
S11318700B4A536903F00F011369C3F3811343EA5D
S113188081038370136903F03F034370936903F08A
S1131890F001D369C3F303130B430370704700BF14
S11318A0D0FF0FE030B50C780CB90223436000235D
S11318B04362CB788A781B0443EA02630A7A1343AF
S11318C08A7943EA8223CA7943EA02234A78002ABE
S11318D014BF4022002213434A7A002A14BF8022F4
S11318E0002213438A7A002A14BF202200221343C1
S11318F0CA7A002A14BF1022002213430A79002A4C
S11319004A7914BF4FF400550025002A43EA050321
S113191014BF4FF0805200221A430B7B002B14BFDC
S113192008230023134303600CB10123436030BD3B
S113193009490A787AB9094B1870A72098700320CE
S11319405A7083F8200083F8212083F8222083F83A
S1131950232001230B7070477701002078010020B9
S113196008B50C4B1B689BB10B4B1A6882B90B4A28
S1131970102111601A68002AFCD00A20FFF774FDB8
S1131980074B10221A601920BDE80840FFF76CBD10
S113199008BD00BF901F144294211442FCA00044CF
S11319A0FCA0004608B5114B1A6842F480121A6074
S11319B0D3F8B020042142F00402C3F8B02005207B
S11319C00A460123FFF734FE0520022201230146C3
S11319D0FFF72EFE064A00231370064A1370064AC8
S11319E01370BDE8084000F0EBBD00BF00400E409E
S11319F09D010020540200202902002010B5FFF7A9
S1131A00AFFF134B10221A60124B05221A70124BAF
S1131A1009225A70A72200249A7003221C7083F8AA
S1131A20202083F8214083F8224083F823400B4B85
S1131A301C700B4B1C700B4B01221A700A4B1C7050
S1131A400A4B1C700A4B1C6000F04EFF204610BD70
S1131A50FCA000449D010020780100202A020020FF
S1131A602902002077010020520100209C0100205F
S1131A70500200202DE9F04FB248B349B34A85B073
S1131A80202301F07FFA0027B14E3378052BFDD8CF
S1131A90DFE813F0F9014901060014013D013D019D
S1131AA0002000F06FFE0020012100F0E7FEA94BAA
S1131AB01C78002C40F0FD80A74AD3780B2B0AD069
S1131AC005D80A2B40F0F180A44B822205E0FD3BAF
S1131AD0012B0FD9E9E0A14BC1221A70A7225A7039
S1131AE0022283F8202083F8214083F8224083F8DF
S1131AF02340E1E0994DFD232B70012385F820302C
S1131B00137985F821404FF0A70B012B85F803B01A
S1131B1085F8224085F82340A84634D151795129CB
S1131B2031D1DFF84C928E4999F800307BB1D1F86D
S1131B3020A0A81C524601F0CBFD05EB0A03C5F812
S1131B4020A083F802B089F80040AB78A6E0854B6A
S1131B500A4603F1180053F8044B42F8044B83423D
S1131B60F9D11B88138000221A2381F8212081F8DF
S1131B70222081F8232081F820307B49012289F832
S1131B8000200A708AE07849097800297FD05279C8
S1131B90012A01D1852B7CD17448714C0DF10B01C4
S1131BA000F0ACFE9DF80B302370062B81464FF0FD
S1131BB0000A06D100F00AFF84F802A06070032333
S1131BC000E0012384F82030694B84F821A084F8D4
S1131BD022A084F823A04FF0010A83F800A040F665
S1131BE00413994542D012DC40F60113994552D0B2
S1131BF003DCB9F1000F1AD047E040F6021399450F
S1131C0013D040F6031399453FD1212346E040F613
S1131C10061399452CD02DDB40F6071399452BD09C
S1131C2040F60813994538D02FE0232336E0514B72
S1131C30DFF860B183F800A04F4B4248C3F800902E
S1131C404E4B009359464E4A802301F0D5F920B3F8
S1131C509BF802300BBB1823237084F820A084F86F
S1131C60219084F8229084F8239017E0222315E031
S1131C70272313E0252311E0424B83F800A000F052
S1131C80A5FE01306070172308E0182306E04D23F9
S1131C9004E0262302E0242300E01923AB70D8F8E3
S1131CA020306B7003332B6206E00420FFF740FE04
S1131CB002E01920FFF7D8FB0323D8E0274C204685
S1131CC0216A00F013FD68B92F4B10221A6000F04E
S1131CD0EDFC236A9842FAD22C4B10221A601D4B59
S1131CE000221A702A4B1B68002BFBD0002000F046
S1131CF031FD1F4B1B780BB10423B8E0214B1B783B
S1131D000122327057EA03023FF4BEAEB1E0204B29
S1131D101B68002BFBD00A20FFF7A6FB1A4B1022EE
S1131D201A600123A3E01A4C2368002BFBD0114D49
S1131D30012000F027FD297800294CD041F2883099
S1131D4000212EE0BC030020B80400204C04002035
S1131D509D010020770100209E01002078010020D1
S1131D6053010020D03700002A020020A3010020E4
S1131D70290200209C01002050020020EC370000C2
S1131D80A601002054020020FCA00044FCA0004650
S1131D90A40F14422C0200200C2B1FD841F28830CF
S1131DA07146FFF79FFB236843B3FFF7D9FDFFF7A5
S1131DB0BBFB0028F7D0394B93F800E01A46BEF17C
S1131DC0000FF0D136490B6801330B6029780029E4
S1131DD0E2D13C2B02D84FF47A70E2E7314B182160
S1131DE019700127002183F8207083F8211083F8EB
S1131DF0221083F823100423177033702A4B1B78A6
S1131E00002B33D1294DFF23EB70A84698F80330FB
S1131E10264CFF2B03D1E01C00F026FDF6E7244BF3
S1131E2010221A60201D00F01FFDE3780333DBB29B
S1131E30012B237915D8852B02D90120FFF778FDD2
S1131E4029791A4C4FF4FA730093601D013103AAE7
S1131E50012300F0C5FC08B1022005E0039B2344E4
S1131E601B79A72B02D00320FFF762FD02233370F6
S1131E700AE65FB90F4A12785AB9002B40F2037090
S1131E8018BF002007E040F2027004E040F2047042
S1131E9001E040F2057005B0BDE8F08F2902002092
S1131EA05002002053010020770100209E010020F1
S1131EB0FCA000465201002010B500F04DFB0022AA
S1131EC0134605200421FFF7B3FB05200022014639
S1131ED01346BDE81040FFF7ABBB00001C4AD2F824
S1131EE0B03043F0040313B5C2F8B0300520012329
S1131EF006210422FFF79CFB00230093009B632B25
S1131F0002DC009B0133F8E70123052006210222AD
S1131F10FFF78EFB00230193019BB3F5FA7F02DAEE
S1131F20019B0133F7E70B4B05201C6806210022B7
S1131F300123FFF77DFB064AD2F8B03014F1FF30DD
S1131F4023F0040318BF0120C2F8B03002B010BD62
S1131F5000400E409821144200F10473102A30B559
S1131F604FEA43131AD101221A600D684C688A683B
S1131F70CB68C0F81051C0F81041C0F81021C0F867
S1131F8010310D694C698A69CB69C0F81051C0F8E9
S1131F901041C0F81021C0F8103130BD00221A6081
S1131FA00D684C688A68CB68456244624262436249
S1131FB030BD7FB58B07024613D00B466D4601F149
S1131FC01006186859682C4603C40833B3422546E2
S1131FD0F7D1009B1360019B1360029B1360039B6A
S1131FE006E00D684C688868CB6815601460106062
S1131FF0136004B070BD30B50568046802680368F6
S1132000880785B010D000950194039302926C4622
S11320100B4604AD224603CAAA421860596014460E
S113202003F10803F6D103E00D604C608A60CB60D5
S113203005B030BD18B10021242201F054BB704713
S113204070B50E461546044690B189B1002124228C
S113205001F049FB802D02D0B5F5807F0BD12046DD
S1132060314640F8045BEA0801F032FB002070BD01
S11320706FF0210070BD6FF0220070BD2DE9F74FA5
S113208080460F469A4615460AB1166800E0164681
S1132090B8F1000F00F0AE800D9B002B00F0AA8079
S11320A00E9B002B00F0A680BAF1000F00F0A28076
S11320B00C9B002B00F09E80D8F80030802B03D0BE
S11320C0B3F5807F40F099804FF00009B94580F066
S11320D08D8076B10C9B995D0D9B13F809200E9BA6
S11320E04A40013603F8092006F00F0609F10109F8
S11320F0ECE700F089F84FF4404246600260044681
S1132100FFF778FAD8F80020802A0CBF08221022A2
S1132110834608F104012046FFF71EFF04F18403FF
S1132120184651460093FFF744FF5846FFF766FAF6
S1132130C9EB070222F00F0202EB090BD94544D088
S11321404821A1600521A16021698A07FCD40321EB
S1132150A160FFF74FFA0D9B019003EB090104F115
S1132160A000FFF726FF0E9B04F1800003EB09019A
S1132170FFF741FFDDF804C06046FFF73FFA09F1BD
S11321801009DBE79EB94823A3600523A3602369F4
S11321909B07FCD40323A360FFF72CFA0C99814618
S11321A004F18000FFF727FF4846FFF727FA0C9B4E
S11321B00E9A995D0D9B13F80B3001364B4002F8D3
S11321C00B3006F00F060BF1010BBB45DAD1FFF71C
S11321D011FA514681460098FFF70DFF4846FFF774
S11321E00DFA204600F01AF8B9466FE745B12E60A3
S11321F0002006E06FF0210003E06FF0220000E011
S1132200284603B0BDE8F08F024B034801221A6050
S1132210704700BF0416C84300000F40054B9842A6
S113222001BF03F16E7303F58B330433002208BF3F
S11322301A60704700000F408A68CB6830B50D689B
S11322404C6805600460026003600D694C698A692A
S1132250CB6905600460026003600D6A4C6A8A6A97
S1132260CB6A05600460026003600D6B4C6B8A6B83
S1132270CB6B056004600260036030BD2DE9F0475C
S113228090B00546894690461F46FFF7BDFF0446B9
S113229027B1012F03D10423036000E00760002766
S11322A06760E764636823F440636360276367637C
S11322B0FFF7A0F96A68A968EB682E68C4F804619E
S11322C0C4F80421C4F80411C4F80431EB696A6940
S11322D0A9692E69C4F80461C4F80421C4F804117E
S11322E0C4F80431FFF78AF9264B236547454E4667
S11322F026D016F0030F06F1400912D06A46306862
S11323007168134603C308364E451A46F7D1FFF7E2
S113231071F96946064604F5D270FFF78DFF304621
S113232008E0FFF767F93146824604F5D270FFF7FB
S113233083FF5046FFF762F9134B23650137D5E756
S1132340FFF758F9D4F80061D4F80011D4F800214B
S1132350D4F80031EB602E606960AA60D4F80061A3
S1132360D4F80011D4F80021D4F80031EB6169618C
S1132370AA612E61FFF742F92046FFF74FFF10B024
S1132380BDE8F087888AC801070D810118B10021D2
S11323906C2201F0A8B97047002330B50362436290
S11323A081B1114C012380F8683004F12005034603
S11323B0224603CAAA4218605960144603F108036E
S11323C0F6D10EE0094C80F86810034604F12005AC
S11323D0224603CAAA4218605960144603F108034E
S11323E0F6D1002030BD00BFFC3700005C3800008F
S11323F0FFF7D2BF01221346FFF740BF036A2DE95E
S1132400F04103F03F051344934203623CBF436A27
S1132410013306460F46144638BF436295B1C5F1F1
S1132420400842450ED305F128004246304401F0ED
S11324304FF9304606F12801FFF7DCFF4744C8EBAB
S1132440040400253F2C0DD94FEA9418394642461E
S113245030464FEA88180123FFF710FF4744C8EBC2
S11324600404EFE744B105F128003044394622461C
S1132470BDE8F04101F02CB9BDE8F08108B50AB11E
S1132480FFF7BCFF002008BD37B5026A0D46416A5C
S1132490530F43EAC1030446180ED1008DF800001F
S11324A0180C02F03F028DF801008DF80330180A71
S11324B00B0E372A8DF804304FEA11438DF80200D1
S11324C08DF805308DF807104FEA112394BFC2F13F
S11324D03802C2F1780220460F498DF80630FFF722
S11324E0CDFFB8B9082220466946FFF787FF94F864
S11324F068002A460028A2EB050314BF1C212021F2
S11325008B4206D29B0854F823301BBA42F8043B92
S1132510F0E7002003B030BD1C380000FFF7AEBF69
S1132520FFF7B2BF002070470020704700207047BB
S11325300020704740F628031B68186970470000A4
S11325402823044A1B68196891420CBF18690020AB
S1132550704700BFAD1007B0002208B50220134633
S11325600721FFF765F80022134602200621FFF732
S11325705FF80022134602200821FFF759F80022D1
S1132580134609210220FFF753F80A4B40F6AA62CA
S1132590DA6041F2050100221A605A665960064960
S11325A09A605A61DA6499645A679A67DA67034BE6
S11325B01A7008BD00040140F9FF010081030020E6
S11325C0344B35481A6842F4801210B51A60D3F8B7
S11325D0B02042F00402C3F8B020D3F8B02042F097
S11325E01002C3F8B0200121FEF7C6FFFFF7B4FFC5
S11325F00220072104220123FFF71AF801221346BF
S113260002200621FFF714F80122134602200821B4
S1132610FFF70EF80122134602200921FFF708F8FC
S11326201E4B4FF00B329A670E225A671A6842F417
S1132630806242F001021A6005225A604522DA6083
S1132640174B4FF0E0621A604FF4502100221A62D7
S1132650DA625A63DA66C3F880100131C3F888205D
S1132660C3F88420C3F8B010C3F8B820C3F8B4206A
S11326700C4A012422F00302C3F89820DC6303F11E
S1132680C063083302221A60FEF700FF064B1C7079
S113269010BD00BF00400E400032040000040140A1
S11326A000200E407C380000810300200D4B1B6A83
S11326B013F0020F10B50C4C0FD03320094BD3F894
S11326C0BC302269C3F30A11C2F301430B44013342
S11326D0984201D01846F1E710BD2069C0F30140CB
S11326E010BD00BF00200E4000040140312938B560
S11326F005460C461FD8FFF7D9FFF8B9A04204D00D
S1132700104B2A5CC2540130F8E70F4B1A88013889
S113271060F30E121A800D4A23F00303C2F8C83086
S11327200223D363FFF7C2FF0028FBD0084B01222A
S11327301A60002038BD41F2031038BD41F2061082
S113274038BD00BF820300201001002000200E408D
S113275074040146012310B1064A13607047064A07
S11327601360064B02221A60054B4FF48062DA6054
S1132770704700BF740401467404014420200E44D1
S113278000040140034B08B1802200E04022DA60DB
S1132790704700BF000401400E4BD3F8943040F260
S11327A00112934206D040F20222934204D00A4816
S11327B01B1A02E0002300E09623084A106898429E
S11327C005D02ABFC0F59670181AC01870470020AB
S11327D0704700BF00200E4055020020B4030020C3
S11327E0F8B5069E04460D4617463BB9FFF7D4FFDD
S11327F0854214D9FFF7D0FF054610E02EB13046CC
S11328000021FEF76FFE00E026B9FFF7C5FFA842DE
S1132810FAD3EBE7FEF788FE0028F6D0E6E70F4A86
S1132820136820466119884212D00D4CE45C00F80C
S1132830014B0133B3F5967F04D10A4B02241C608B
S11328400023F0E7962B02BF064C01262660EAE738
S1132850136007B13D600020F8BD00BFB403002041
S11328605502002008200E4607B5002201210092DF
S11328700B46FFF7B5FF03B05DF804FB30B10E4B18
S113288002221A600D4B4FF48062DA6099B10A4B50
S11328900B4A012119600B4B23F00303C2F8983053
S11328A0094B00201860054B4FF40060D860074BBB
S11328B0D16302221A60704720200E4400040140B4
S11328C000200E407C380000B403002008200E468F
S11328D0004870474A43E00F004870476A43E00FDE
S11328E0004870478642E00F024A00231370024AF0
S11328F013707047B8030020B903002038B503787B
S1132900042B05460C464ED003D8012B06D0032BCE
S113291002E0182B4CD0432B4FD149E0294B42788D
S1132920197841B9012A04D01523237040F6041004
S113293038BD1A7011E0244B1B789A4204D1062347
S1132940237040F6061038BD0133DBB29A4204D03E
S11329501523237040F6051038BDAB781A44FF2ABE
S1132960E2D10022E81C8021FEF7C1F895F88330FB
S1132970C0F30F229A4204D01523237040F60210AC
S113298038BD95F88430C0B2984203BF0E4B6A78C4
S11329901A7015230BBF06232370237040F6011011
S11329A008BF002038BD06230B7040F6071038BD61
S11329B01823237040F6081038BD1823237040F6FE
S11329C0031038BDB9030020B8030020014B187868
S11329D0704700BFB8030020F0B51E4B446BA1B094
S11329E001AA054603F1100C1746186859681646E3
S11329F003C6083363453246F7D1102239462046D0
S1132A0000F056FE18B96369012B1FD1A46940F682
S1132A1028031B681B69A3421AD8AC4218D3B4F527
S1132A20802F15D805A8FEF7F7F8621B294605A8DC
S1132A30FEF7FCF805A8FEF7FBF804F12002214696
S1132A4005A8FEF7B3F8B0FA80F0400921B0F0BD54
S1132A500020FBE7BC38000040F628032DE9F041D4
S1132A601B6816461A698242054688461DD85B696A
S1132A708719BB4219D3C0F30A030BB900F019F943
S1132A8005F5006424F4FF6424F00704A74206D883
S1132A90324641462846BDE8F04100F015B92046CB
S1132AA000F007F904F50064F0E7BDE8F0810000E8
S1132AB0F0B5294B85B06A46044603F11007164663
S1132AC018685968154603C50833BB422A46F7D12E
S1132AD0236803F16043B3F5F84F38D840F6280370
S1132AE062681B681B69934231D8B2F5802F2ED8D7
S1132AF0656B4033AB4202D8B5F5802F06D9FDF79C
S1132B00E7FF80F00100C0B205B0F0BDFDF7E0FFC3
S1132B1028B1204605B0BDE8F040FFF75DBF1022A4
S1132B203146284600F0C4FD98B96B698BB1022B7D
S1132B30EFD1AB69C4F1040119444FF0FF322046D0
S1132B40FDF7E4FF054BC31A58425841DCE7002067
S1132B50DAE70120D8E700BFBC380000E320BBDE81
S1132B60B1F5BC7F10B504460FD34FF4BC720021FD
S1132B7000F0B9FD04F1FC0204F1B40104F12400F5
S1132B800023BDE8104000F0FDB940F2052010BD5F
S1132B9013B5044600910146243000F02DFAC4F820
S1132BA0740118B141F20703984209D1A3784BB1DB
S1132BB0E27840F2032040F20223002A08BF1846BC
S1132BC002B010BD40F20120FAE74FF000534FF27B
S1132BD00F0218805A8070474FF000534CF23C3279
S1132BE05A8070474FF000534FF20F025A800A4A3E
S1132BF01880136823F4E06343F480631360BFF325
S1132C004F8F0649064BCA6802F4E0621343CB6057
S1132C10BFF34F8F00BFFDE700500E4000ED00E012
S1132C200400FA054FF000534FF20F015A888A420C
S1132C3001D1188870473AB91B88012B40F2022051
S1132C4018BF4FF4007070474FF4007070470000D5
S1132C50044B41F671321A649A6822F001029A60B8
S1132C60704700BF00000E40034B9A6822F0010237
S1132C709A6000221A64704700000E4007B50346AC
S1132C809B0753BF6FEA01414FF6FF7343EA0141CB
S1132C906FEA1141019120F00300FFF7D9FF0422EC
S1132CA00DEB0201FEF7E0FDFFF7DEFF03B05DF878
S1132CB004FB08B5FFF7CCFFFEF79EFDFFF7D4FF3A
S1132CC0B0FA80F0400908BDF8B540EA02031446A2
S1132CD0DA0705460E4601D50020F8BD0CB90120DF
S1132CE0FBE7830725D50988FFF7C8FF0028F3D140
S1132CF0023C032C05F1020506F102060FD924F06B
S1132D000307FFF7A5FF3A4631462846FEF7ACFD18
S1132D10FFF7AAFF0028DFD13E443D44E41B002C0A
S1132D20DDD031882846FFF7A9FFB0FA80F04009CA
S1132D30D3E7032CE3D8F4E770B5D1E90152AA42F2
S1132D4005D290F840302B449B1A402B10D9002018
S1132D5012E00A6890F84040D65C90F84120224482
S1132D6002F03F020133013486548B6080F8404006
S1132D708B689D42EDD8012070BD2DE9F8431746BC
S1132D80D1E90125521B90F840509DF820909DF800
S1132D9024802A44934204460E4657D9FFF7CCFFB9
S1132DA000285DD1122384F8463041F20200BDE8C8
S1132DB0F88394F84120A25C7A5594F841200132BA
S1132DC002F03F0284F8412094F84020013A84F84C
S1132DD04020013594F8402012B1AB42E9D11D46A0
S1132DE0D6E901128A4201D2AB4231D8AB42D9D1E1
S1132DF0D4F8882029463846FDF788FEC4F88800B0
S1132E00B9F1000F04D02A463946E06CFDF70EFFF5
S1132E10B8F1000F08D094F843302BB12B463A4652
S1132E203946A06CFDF7B2FE94F8433043B1E36D2C
S1132E30A26D2B449342E36524BF002384F84330FE
S1132E40636D1D44656541F20300B0E70025C1E7E9
S1132E5031688A5C7A55B2680132B2600135BFE7E5
S1132E600020A4E77FB50023CDE9003308231546ED
S1132E700DEB03020446FFF780FF41F2030398427F
S1132E80064626D194F8433063B108220DEB0201C3
S1132E90E06CFDF7CBFE08230DEB03021146A06C9A
S1132EA0FDF774FE039A6A6094F84320029B2B603A
S1132EB05AB9094A934208D0084A934205D00822D5
S1132EC00DEB0201E06CFDF7B1FE6B682365002396
S1132ED06365304604B070BDF70A0AF7FC0404FCCD
S1132EE02DE9F843044658680D4616461F46002847
S1132EF043D08B0743D1FFF71DFB216E00F1040C77
S1132F0006EB0109CC451DD800F11C02914219D2EF
S1132F108C45634638BF0B46591AA3EB0C00914508
S1132F2094BFC3EB0909C3EB020905EB0108683040
S1132F304A464146204400F0CBFB4A46FF21404626
S1132F4000F0D1FBFFF7FCFA226E031D93420AD373
S1132F50B1180830814206D39B1AEA58C4F880207D
S1132F604FF0FF32EA50D7E900383246206E294646
S1132F70C047236E1E4426660020BDE8F88341F254
S1132F800200FAE7F8B504464FF0FF36154603F0A1
S1132F902003002280F84620A0F8402080F8432037
S1132FA080F8452080F84420C0E918220F4680F8B4
S1132FB04230C0F888601822FF21683000F093FB8B
S1132FC0C4F88060C4F88460C4E91275FFF7B0FAED
S1132FD018B117B941F20B00F8BDFFF7A7FA30B1E9
S1132FE0002DF7D0E06CFDF717FE0020F4E7002D6C
S1132FF0F8D12846F0E700002DE9F04F9BB0CDE969
S113300007230393249EDFF8B4A3002304468946D0
S113301009939846099A039B9A4257D294F84630EA
S1133020122BF8D8DFE813F05B007000540098000E
S113303095013B003200B2013B00AC013B00AC0106
S113304089021E031300F102F5021E021E0300276B
S1133050636D0F2B41D801251023019700950AAA0F
S113306007A92046FFF789FE41F20303984278D16D
S1133070D4F848B0FFF734FC8023CDE900030BAA51
S11330802B4602215846FDF75DFDE1E70125D4E911
S113309014329A42C0F0178184F84650BAE70DF111
S11330A0280BD4E91452AA42099916D2089BAD1AE6
S11330B094F840205B1A032D134440F28181032BC2
S11330C000F2A58107A92046FFF736FE002048E05C
S11330D00025636D072B40F2BF80012311E005AA90
S11330E007A92046FFF7BEFE41F20303984238D1F8
S11330F0069B236500236365059AA64B9A422BD150
S1133100022384F8463085E705AA07A92046FFF77D
S1133110A9FE41F20303984223D194F84420059B6D
S113312022B19D4A934217D10C23EAE794F8422036
S1133130D7074BD594F84320002A40F09682534594
S11331405FD020D8954A934206D00DD8914A934235
S113315002D0934A93420ED1122384F8463041F2AE
S113316001001BB0BDE8F08F8E4A9342F4D002F107
S1133170013293421FD0122384F8463005A8FFF78A
S1133180D1F9D8B1EBE784498B421AD007D88649E4
S11331908B4209D0854A9342EDD10E23B1E7844A8C
S11331A09342D9D0834AD5E70F2384F84630236D60
S11331B0C4E916322EE7122384F8463041F208009F
S11331C0CFE7FFF7B3F90028AED0C5E7534514D0D5
S11331D000F24F82714A934207D0724A934206D05A
S11331E06F4A93420FD106238BE7042389E7072311
S11331F087E7092385E70B2383E794F84330002B03
S1133200AAD110237DE705A8FFF78CF9D0B11123CB
S1133210059884F84630C4F88C00FFF785F994F8D3
S113322042309D0680467FF5F5AE00283FF4F2AEAD
S11332304368002B3FF4EEAE2046984700283FF445
S1133240E9AE8CE7122384F8463094F84330002B1F
S1133250B4D041F2040084E70123009301950823CC
S11332600AAA07A92046FFF788FD41F20303984202
S11332707FF477AF0A9B03F07F43B3F1407F05D01F
S1133280122384F8463041F209006AE70B9B049349
S1133290D8070ED594F8423043F0010384F8423045
S11332A0FFF744F900283FF414AF049BD90504D573
S11332B00FE7FFF73DF90028F2D0122384F84630D7
S11332C041F20A004DE7CDE900550AAA07A92046B4
S11332D0FFF753FD41F2030398427FF442AF0AAF74
S11332E009F108030DF1400C3A4603CA624518601F
S11332F05960174603F10803F6D11068186089F87D
S11333000150C4E601250823CDE900550AAA07A9FE
S11333102046FFF732FD41F2030398427FF421AFC8
S11333202822254812680A9B1168C9F80430814292
S11333300B9B89F80050049303D1D2689A427FF41E
S11333400BAF052384F84630012384F8453000236D
S11333506366636D072BD5D95CE60423CDE900557C
S11333600AAA07A92046FFF708FD41F20303984281
S11333707FF4F7AE226D0A9B0493042A01D92366D5
S11333800125636D032BE8D90A23BAE6002363669B
S11333900823B6E6EB17A603FC0404FCF50909F5BB
S11333A0F40A0AF4F60808F6F90707F9FA0606FA21
S11333B0FD0303FDFE0101FEAD1007B0F70A0AF795
S11333C09D423FF67FAE9D4228BF1D46032D88BF18
S11333D025F003050123CDE900335A462B4607A9FE
S11333E02046FFF7CAFC41F2030398427FF4B9AECA
S11333F094F84630082B13D1B7688FB13368606EE8
S11334002A465946B847636E1D44656649E6402D11
S113341028BF4025D7E74FF0FF320BF805200135D0
S1133420032DF8D90A2B06D133462A46594620469D
S1133430FFF756FD35E6052B7FF433AEF368002B1A
S11334403FF42FAE626E042A0AD85319062B07D90B
S11334500BAB9B1A1A68C4F884204FF0FF321A6031
S1133460F768CBE794F842309A0607D5D4F88C0075
S1133470FFF75AF8804600283FF471AE01273FE079
S1133480002B58D0B8F1000F55D0D8F81030002BCD
S113349051D020469847DDE90853ED1A94F840309E
S11334A02B4498423FF60EAED4E91452AD1A402D87
S11334B028BF40259D4228BF1D462B46CDE90077F5
S11334C00AAA07A92046FFF758FC41F203039842D1
S11334D07FF447AE94F842309B0611D5B8F1000F43
S11334E03FF43DAED8F808B0BBF1000F3FF437AE5F
S11334F033462A460AA92046D84700287FF431AE2D
S1133500D4E9142194F84230914203F02003B7D354
S1133510002B3FF4E2ADB8F1000F3FF4DEADD8F874
S11335200C30002B3FF4D9AD314620469847002893
S11335303FF4D3AD15E60120ADE70023CDE9003318
S11335400AAA042307A92046FFF717FC41F2030344
S113355098427FF406AED4F88820514B9A4205D0A5
S1133560122384F8463041F20500FAE5FEF7DEFF47
S113357010B9012389F8033099F80330002B3DD0AA
S113358094F845303BB1F5682DB10422336804F159
S113359084011046A847236E83B3736873B31AAFCC
S11335A04FF0FF3347F8583D04F1800804224146A8
S11335B0384600F07DF840B1FEF7C2FF28B104227E
S11335C0D6E9003541461044A84704F168050422B1
S11335D02946384600F06CF880B17768FEF7AAFFF8
S11335E03368142204F16C010830B8477768FEF799
S11335F0A1FF0422336829461044B847012389F8FF
S113360002300D2384F8463060E5012384F843300A
S113361077E594F84450002D7FF45FAD4023CDE965
S113362000550AAA07A92046FFF7A7FB41F20303A6
S113363098427FF496ADE06CFDF7FAFA12AA0AA953
S1133640E06CFDF7B3FA38B1122389F8035041F264
S1133650060084F8463084E5012389F8033084F8B1
S113366044303AE541F207007BE553457FF4B0ADC1
S113367072E50C4A93423FF4BEAD0B4A93423FF4C9
S1133680B8AD0A4A93427FF4BEADFEF74FFF00285F
S11336907FF462AD94F84330002B3FF445AD5BE515
S11336A0E320BBDEFD0303FDFE0101FEFC0404FC7C
S11336B010B50A44441E914208D014F8013F08781A
S11336C0834201D0181A10BD0131F4E7002010BD67
S11336D010B5431E0A44914204D011F8014B03F87B
S11336E0014FF8E710BD02440346934202D003F8A9
S11336F0011BFAE770470000F8B500BFF8BC08BC2E
S11337009E467047F8B500BFF8BC08BC9E4670479B
S113371007B0CD5E0100000000000601003100008A
S11337200040000000000400F000100075090000D3
S113373079090000B12A0000612B0000912B0000E0
S1133740000000002000000000010000050C000043
S1133750FFFFFFFFFFFFFFFFFFFFFFFF0000000071
S1133760000000000000000001000000FFFFFFFF58
S1133770512563FCC2CAB9F3849E17A7ADFAE6BC0F
S1133780FFFFFFFFFFFFFFFF00000000FFFFFFFF41
S113379096C298D84539A1F4A033EB2D817D0377E7
S11337A0F240A463E5E6BCF847422CE1F2D1176B82
S11337B0F551BF376840B6CBCE5E316B5733CE2B55
S11337C0169E0F7C4AEBE78E9B7F1AFEE242E34F84
S11337D05201FFFF00000000000000000000000094
S11337E000000000000418090106000000000000A9
S11337F0592A00000000000000000000D89E05C106
S113380007D57C3617DD703039590EF7310BC0FF00
S113381011155868A78FF964A44FFABE8000000000
S11338200000000000000000000000000000000094
S11338300000000000000000000000000000000084
S11338400000000000000000000000000000000074
S113385000000000000000000000000067E6096AA4
S113386085AE67BB72F36E3C3AF54FA57F520E519D
S11338708C68059BABD9831F19CDE05B50091003FD
S11338801C04014055020020130000000900000040
S113389000010000020200001300000050091003A0
S11338A01C040140EB02002013000000090000008A
S11338B00002000001010000D3FFFFFF13B779FAF3
S11338C0C925DDB7ADF3CFE0F1B614B800000000B0
S11338D00080000000F04902C0EA2101C0EA210191
S11338E0F07F103082030020340401400000000007
S10F38F065080000410800000000000012
S903092DC6
